{
  "contractName": "Polkadot",
  "abi": [
    {
      "constant": true,
      "inputs": [],
      "name": "balances",
      "outputs": [
        {
          "internalType": "uint256",
          "name": "",
          "type": "uint256"
        }
      ],
      "payable": false,
      "stateMutability": "view",
      "type": "function"
    },
    {
      "constant": true,
      "inputs": [],
      "name": "name",
      "outputs": [
        {
          "internalType": "string",
          "name": "",
          "type": "string"
        }
      ],
      "payable": false,
      "stateMutability": "view",
      "type": "function"
    },
    {
      "constant": true,
      "inputs": [],
      "name": "symbol",
      "outputs": [
        {
          "internalType": "string",
          "name": "",
          "type": "string"
        }
      ],
      "payable": false,
      "stateMutability": "view",
      "type": "function"
    }
  ],
  "bytecode": "0x60806040526040518060400160405280601381526020017f506f6c6b61646f74204d6f636b20546f6b656e000000000000000000000000008152506000908051906020019061004f9291906100e4565b506040518060400160405280600381526020017f55534400000000000000000000000000000000000000000000000000000000008152506001908051906020019061009b9291906100e4565b50683635c9adc5dea000006002556012600360006101000a81548160ff021916908360ff160217905550681b1ae4d6e2ef5000006004553480156100de57600080fd5b50610189565b828054600181600116156101000203166002900490600052602060002090601f016020900481019282601f1061012557805160ff1916838001178555610153565b82800160010185558215610153579182015b82811115610152578251825591602001919060010190610137565b5b5090506101609190610164565b5090565b61018691905b8082111561018257600081600090555060010161016a565b5090565b90565b6102e1806101986000396000f3fe608060405234801561001057600080fd5b50600436106100415760003560e01c806306fdde03146100465780637bb98a68146100c957806395d89b41146100e7575b600080fd5b61004e61016a565b6040518080602001828103825283818151815260200191508051906020019080838360005b8381101561008e578082015181840152602081019050610073565b50505050905090810190601f1680156100bb5780820380516001836020036101000a031916815260200191505b509250505060405180910390f35b6100d1610208565b6040518082815260200191505060405180910390f35b6100ef61020e565b6040518080602001828103825283818151815260200191508051906020019080838360005b8381101561012f578082015181840152602081019050610114565b50505050905090810190601f16801561015c5780820380516001836020036101000a031916815260200191505b509250505060405180910390f35b60008054600181600116156101000203166002900480601f0160208091040260200160405190810160405280929190818152602001828054600181600116156101000203166002900480156102005780601f106101d557610100808354040283529160200191610200565b820191906000526020600020905b8154815290600101906020018083116101e357829003601f168201915b505050505081565b60045481565b60018054600181600116156101000203166002900480601f0160208091040260200160405190810160405280929190818152602001828054600181600116156101000203166002900480156102a45780601f10610279576101008083540402835291602001916102a4565b820191906000526020600020905b81548152906001019060200180831161028757829003601f168201915b50505050508156fea265627a7a72315820109fb972d3a25d9f0b13a193269a0c531c7e7eaf33a763222bebd2394dd62b5364736f6c63430005110032",
  "source": "pragma solidity ^0.5.16;\n\ncontract Polkadot {\n\n    string public name = 'Polkadot Mock Token';\n    string public symbol = 'USD';\n    uint256 totalSupply = 1000000000000000000000; // 1 million tokens\n    uint8 decimals = 18;\n    uint256 public balances = 500000000000000000000; // how mnay coins are in circulation\n}",
  "sourcePath": "/Users/marinashalneva/Desktop/defi-staking-app-starter/defi-staking-app-starter/src/contracts/Polkadot.sol",
  "compiler": {
    "name": "solc",
    "version": "0.5.17+commit.d19bba13.Emscripten.clang"
  },
  "schemaVersion": "3.4.4",
  "updatedAt": "2022-01-09T16:57:39.070Z",
  "networkType": "ethereum",
  "devdoc": {
    "methods": {}
  },
  "userdoc": {
    "methods": {}
  }
}